{
  "_format": "hh-sol-artifact-1",
  "contractName": "MerkleAirdrop",
  "sourceName": "contracts/MerkleAirdrop.sol",
  "abi": [
    {
      "inputs": [
        {
          "internalType": "address",
          "name": "_tokenAddress",
          "type": "address"
        },
        {
          "internalType": "bytes32",
          "name": "_merkleRoot",
          "type": "bytes32"
        }
      ],
      "stateMutability": "nonpayable",
      "type": "constructor"
    },
    {
      "inputs": [
        {
          "internalType": "uint256",
          "name": "amount",
          "type": "uint256"
        },
        {
          "internalType": "bytes32[]",
          "name": "merkleProof",
          "type": "bytes32[]"
        }
      ],
      "name": "claim",
      "outputs": [],
      "stateMutability": "nonpayable",
      "type": "function"
    }
  ],
  "bytecode": "0x60e060405273bc4ca0eda7647a8ab7c2061c2e118a18a936f13d73ffffffffffffffffffffffffffffffffffffffff1660c09073ffffffffffffffffffffffffffffffffffffffff168152503480156200005857600080fd5b5060405162000c6b38038062000c6b83398181016040528101906200007e919062000261565b600073ffffffffffffffffffffffffffffffffffffffff168273ffffffffffffffffffffffffffffffffffffffff1603620000f0576040517f08c379a0000000000000000000000000000000000000000000000000000000008152600401620000e79062000309565b60405180910390fd5b6000801b810362000138576040517f08c379a00000000000000000000000000000000000000000000000000000000081526004016200012f906200037b565b60405180910390fd5b8173ffffffffffffffffffffffffffffffffffffffff1660a08173ffffffffffffffffffffffffffffffffffffffff16815250508060808181525050336000806101000a81548173ffffffffffffffffffffffffffffffffffffffff021916908373ffffffffffffffffffffffffffffffffffffffff16021790555050506200039d565b600080fd5b600073ffffffffffffffffffffffffffffffffffffffff82169050919050565b6000620001ee82620001c1565b9050919050565b6200020081620001e1565b81146200020c57600080fd5b50565b6000815190506200022081620001f5565b92915050565b6000819050919050565b6200023b8162000226565b81146200024757600080fd5b50565b6000815190506200025b8162000230565b92915050565b600080604083850312156200027b576200027a620001bc565b5b60006200028b858286016200020f565b92505060206200029e858286016200024a565b9150509250929050565b600082825260208201905092915050565b7f696e76616c696420616464726573730000000000000000000000000000000000600082015250565b6000620002f1600f83620002a8565b9150620002fe82620002b9565b602082019050919050565b600060208201905081810360008301526200032481620002e2565b9050919050565b7f696e76616c6964206d65726b6c6520726f6f7400000000000000000000000000600082015250565b600062000363601383620002a8565b915062000370826200032b565b602082019050919050565b60006020820190508181036000830152620003968162000354565b9050919050565b60805160a05160c05161089f620003cc600039600060dd0152600061031201526000610251015261089f6000f3fe608060405234801561001057600080fd5b506004361061002b5760003560e01c80632f52ebb714610030575b600080fd5b61004a60048036038101906100459190610504565b61004c565b005b600260003373ffffffffffffffffffffffffffffffffffffffff1673ffffffffffffffffffffffffffffffffffffffff16815260200190815260200160002060009054906101000a900460ff16156100d9576040517f08c379a00000000000000000000000000000000000000000000000000000000081526004016100d0906105c1565b60405180910390fd5b60007f000000000000000000000000000000000000000000000000000000000000000073ffffffffffffffffffffffffffffffffffffffff166370a08231336040518263ffffffff1660e01b81526004016101349190610622565b602060405180830381865afa158015610151573d6000803e3d6000fd5b505050506040513d601f19601f820116820180604052508101906101759190610652565b116101b5576040517f08c379a00000000000000000000000000000000000000000000000000000000081526004016101ac906106cb565b60405180910390fd5b600033846040516020016101ca9291906106fa565b604051602081830303815290604052805190602001206040516020016101f0919061074e565b6040516020818303038152906040528051906020012090506000610276848480806020026020016040519081016040528093929190818152602001838360200280828437600081840152601f19601f820116905080830192505050505050507f0000000000000000000000000000000000000000000000000000000000000000846103b6565b9050806102b8576040517f08c379a00000000000000000000000000000000000000000000000000000000081526004016102af906107b5565b60405180910390fd5b6001600260003373ffffffffffffffffffffffffffffffffffffffff1673ffffffffffffffffffffffffffffffffffffffff16815260200190815260200160002060006101000a81548160ff0219169083151502179055507f000000000000000000000000000000000000000000000000000000000000000073ffffffffffffffffffffffffffffffffffffffff1663a9059cbb33876040518363ffffffff1660e01b815260040161036b9291906106fa565b6020604051808303816000875af115801561038a573d6000803e3d6000fd5b505050506040513d601f19601f820116820180604052508101906103ae919061080d565b505050505050565b6000826103c385846103cd565b1490509392505050565b60008082905060005b845181101561041257610403828683815181106103f6576103f561083a565b5b602002602001015161041d565b915080806001019150506103d6565b508091505092915050565b6000818310610435576104308284610448565b610440565b61043f8383610448565b5b905092915050565b600082600052816020526040600020905092915050565b600080fd5b600080fd5b6000819050919050565b61047c81610469565b811461048757600080fd5b50565b60008135905061049981610473565b92915050565b600080fd5b600080fd5b600080fd5b60008083601f8401126104c4576104c361049f565b5b8235905067ffffffffffffffff8111156104e1576104e06104a4565b5b6020830191508360208202830111156104fd576104fc6104a9565b5b9250929050565b60008060006040848603121561051d5761051c61045f565b5b600061052b8682870161048a565b935050602084013567ffffffffffffffff81111561054c5761054b610464565b5b610558868287016104ae565b92509250509250925092565b600082825260208201905092915050565b7f557365722068617320616c726561647920636c61696d65640000000000000000600082015250565b60006105ab601883610564565b91506105b682610575565b602082019050919050565b600060208201905081810360008301526105da8161059e565b9050919050565b600073ffffffffffffffffffffffffffffffffffffffff82169050919050565b600061060c826105e1565b9050919050565b61061c81610601565b82525050565b60006020820190506106376000830184610613565b92915050565b60008151905061064c81610473565b92915050565b6000602082840312156106685761066761045f565b5b60006106768482850161063d565b91505092915050565b7f5573657220646f6573206e6f7420686f6c6420616e79206e6674000000000000600082015250565b60006106b5601a83610564565b91506106c08261067f565b602082019050919050565b600060208201905081810360008301526106e4816106a8565b9050919050565b6106f481610469565b82525050565b600060408201905061070f6000830185610613565b61071c60208301846106eb565b9392505050565b6000819050919050565b6000819050919050565b61074861074382610723565b61072d565b82525050565b600061075a8284610737565b60208201915081905092915050565b7f4d65726b6c652070726f6f6620697320696e76616c6964000000000000000000600082015250565b600061079f601783610564565b91506107aa82610769565b602082019050919050565b600060208201905081810360008301526107ce81610792565b9050919050565b60008115159050919050565b6107ea816107d5565b81146107f557600080fd5b50565b600081519050610807816107e1565b92915050565b6000602082840312156108235761082261045f565b5b6000610831848285016107f8565b91505092915050565b7f4e487b7100000000000000000000000000000000000000000000000000000000600052603260045260246000fdfea26469706673582212206fd0bbc82ec2b9c0ad24eee3ce1814ad209cb90f800270f09bf2a294aa65c0ca64736f6c63430008180033",
  "linkReferences": {},
  "deployedLinkReferences": {}
}